{
  "contractName": "ClimateActionProjects",
  "abi": [
    {
      "inputs": [],
      "stateMutability": "nonpayable",
      "type": "constructor"
    },
    {
      "inputs": [],
      "name": "admin",
      "outputs": [
        {
          "internalType": "address",
          "name": "",
          "type": "address"
        }
      ],
      "stateMutability": "view",
      "type": "function",
      "constant": true
    },
    {
      "inputs": [],
      "name": "nextProjectId",
      "outputs": [
        {
          "internalType": "uint256",
          "name": "",
          "type": "uint256"
        }
      ],
      "stateMutability": "view",
      "type": "function",
      "constant": true
    },
    {
      "inputs": [
        {
          "internalType": "uint256",
          "name": "",
          "type": "uint256"
        }
      ],
      "name": "projects",
      "outputs": [
        {
          "internalType": "uint256",
          "name": "id",
          "type": "uint256"
        },
        {
          "internalType": "address payable",
          "name": "owner",
          "type": "address"
        },
        {
          "internalType": "string",
          "name": "name",
          "type": "string"
        },
        {
          "internalType": "string",
          "name": "description",
          "type": "string"
        },
        {
          "internalType": "uint256",
          "name": "fundingGoal",
          "type": "uint256"
        },
        {
          "internalType": "string",
          "name": "environmentalImpact",
          "type": "string"
        },
        {
          "internalType": "bool",
          "name": "approved",
          "type": "bool"
        },
        {
          "internalType": "uint256",
          "name": "currentFunding",
          "type": "uint256"
        },
        {
          "internalType": "uint256",
          "name": "milestoneTarget",
          "type": "uint256"
        },
        {
          "internalType": "bool",
          "name": "milestoneReached",
          "type": "bool"
        }
      ],
      "stateMutability": "view",
      "type": "function",
      "constant": true
    },
    {
      "inputs": [
        {
          "internalType": "string",
          "name": "name",
          "type": "string"
        },
        {
          "internalType": "string",
          "name": "description",
          "type": "string"
        },
        {
          "internalType": "uint256",
          "name": "fundingGoal",
          "type": "uint256"
        },
        {
          "internalType": "string",
          "name": "environmentalImpact",
          "type": "string"
        },
        {
          "internalType": "uint256",
          "name": "milestoneTarget",
          "type": "uint256"
        }
      ],
      "name": "submitProject",
      "outputs": [],
      "stateMutability": "nonpayable",
      "type": "function"
    },
    {
      "inputs": [
        {
          "internalType": "uint256",
          "name": "projectId",
          "type": "uint256"
        }
      ],
      "name": "approveProject",
      "outputs": [],
      "stateMutability": "nonpayable",
      "type": "function"
    },
    {
      "inputs": [
        {
          "internalType": "uint256",
          "name": "projectId",
          "type": "uint256"
        }
      ],
      "name": "contributeToFunding",
      "outputs": [],
      "stateMutability": "payable",
      "type": "function",
      "payable": true
    },
    {
      "inputs": [],
      "name": "getProjectsCount",
      "outputs": [
        {
          "internalType": "uint256",
          "name": "",
          "type": "uint256"
        }
      ],
      "stateMutability": "view",
      "type": "function",
      "constant": true
    }
  ],
  "bytecode": "0x608060405234801561001057600080fd5b50600080546001600160a01b03191633179055610a82806100326000396000f3fe6080604052600436106100705760003560e01c8063e4a8f18b1161004e578063e4a8f18b146100e9578063e935b7b114610108578063f851a4401461011e578063fc69d8361461015657600080fd5b806307ac805214610075578063107046bd14610097578063cc78350b146100d6575b600080fd5b34801561008157600080fd5b50610095610090366004610725565b610176565b005b3480156100a357600080fd5b506100b76100b23660046107bf565b61030f565b6040516100cd9a9998979695949392919061081e565b60405180910390f35b6100956100e43660046107bf565b610519565b3480156100f557600080fd5b506001545b6040519081526020016100cd565b34801561011457600080fd5b506100fa60025481565b34801561012a57600080fd5b5060005461013e906001600160a01b031681565b6040516001600160a01b0390911681526020016100cd565b34801561016257600080fd5b506100956101713660046107bf565b6105e6565b604080516101408101825260025481523360208201908152918101878152606082018790526080820186905260a08201859052600060c0830181905260e0830181905261010083018590526101208301819052600180548082018255915282517fb10e2d527612073b26eecdfd717e6a320cf44b4afac2b0732d9fcbe2b7fa0cf6600a90920291820190815593517fb10e2d527612073b26eecdfd717e6a320cf44b4afac2b0732d9fcbe2b7fa0cf7820180546001600160a01b0319166001600160a01b0390921691909117905590519192839290917fb10e2d527612073b26eecdfd717e6a320cf44b4afac2b0732d9fcbe2b7fa0cf80190610279908261092e565b506060820151600382019061028e908261092e565b506080820151600482015560a082015160058201906102ad908261092e565b5060c082015160068201805491151560ff1992831617905560e0830151600783015561010083015160088301556101209092015160099091018054911515919092161790556002805490600061030283610a04565b9190505550505050505050565b6001818154811061031f57600080fd5b60009182526020909120600a90910201805460018201546002830180549294506001600160a01b039091169291610355906108a5565b80601f0160208091040260200160405190810160405280929190818152602001828054610381906108a5565b80156103ce5780601f106103a3576101008083540402835291602001916103ce565b820191906000526020600020905b8154815290600101906020018083116103b157829003601f168201915b5050505050908060030180546103e3906108a5565b80601f016020809104026020016040519081016040528092919081815260200182805461040f906108a5565b801561045c5780601f106104315761010080835404028352916020019161045c565b820191906000526020600020905b81548152906001019060200180831161043f57829003601f168201915b505050505090806004015490806005018054610477906108a5565b80601f01602080910402602001604051908101604052809291908181526020018280546104a3906108a5565b80156104f05780601f106104c5576101008083540402835291602001916104f0565b820191906000526020600020905b8154815290600101906020018083116104d357829003601f168201915b505050600684015460078501546008860154600990960154949560ff928316959194509250168a565b60006001828154811061052e5761052e610a1d565b60009182526020909120600a90910201600681015490915060ff166105aa5760405162461bcd60e51b815260206004820152602760248201527f50726f6a656374206d75737420626520617070726f766564206265666f72652060448201526666756e64696e6760c81b60648201526084015b60405180910390fd5b348160070160008282546105be9190610a33565b909155505060088101546007820154106105e25760098101805460ff191660011790555b5050565b6000546001600160a01b0316331461064b5760405162461bcd60e51b815260206004820152602260248201527f4f6e6c792061646d696e2063616e20706572666f726d2074686973206163746960448201526137b760f11b60648201526084016105a1565b60006001828154811061066057610660610a1d565b600091825260209091206006600a9092020101805460ff191660011790555050565b634e487b7160e01b600052604160045260246000fd5b600082601f8301126106a957600080fd5b813567ffffffffffffffff808211156106c4576106c4610682565b604051601f8301601f19908116603f011681019082821181831017156106ec576106ec610682565b8160405283815286602085880101111561070557600080fd5b836020870160208301376000602085830101528094505050505092915050565b600080600080600060a0868803121561073d57600080fd5b853567ffffffffffffffff8082111561075557600080fd5b61076189838a01610698565b9650602088013591508082111561077757600080fd5b61078389838a01610698565b95506040880135945060608801359150808211156107a057600080fd5b506107ad88828901610698565b95989497509295608001359392505050565b6000602082840312156107d157600080fd5b5035919050565b6000815180845260005b818110156107fe576020818501810151868301820152016107e2565b506000602082860101526020601f19601f83011685010191505092915050565b8a81526001600160a01b038a166020820152610140604082018190526000906108498382018c6107d8565b9050828103606084015261085d818b6107d8565b905088608084015282810360a084015261087781896107d8565b96151560c0840152505060e08101939093526101008301919091521515610120909101529695505050505050565b600181811c908216806108b957607f821691505b6020821081036108d957634e487b7160e01b600052602260045260246000fd5b50919050565b601f82111561092957600081815260208120601f850160051c810160208610156109065750805b601f850160051c820191505b8181101561092557828155600101610912565b5050505b505050565b815167ffffffffffffffff81111561094857610948610682565b61095c8161095684546108a5565b846108df565b602080601f83116001811461099157600084156109795750858301515b600019600386901b1c1916600185901b178555610925565b600085815260208120601f198616915b828110156109c0578886015182559484019460019091019084016109a1565b50858210156109de5787850151600019600388901b60f8161c191681555b5050505050600190811b01905550565b634e487b7160e01b600052601160045260246000fd5b600060018201610a1657610a166109ee565b5060010190565b634e487b7160e01b600052603260045260246000fd5b80820180821115610a4657610a466109ee565b9291505056fea2646970667358221220c646e4d0e24c4fcefcefb06bd2e890c915d18e190e11302a4eccf8aa55d8e44664736f6c63430008130033",
  "immutableReferences": {},
  "source": "// SPDX-License-Identifier: MIT\npragma solidity ^0.8.19;\n\ncontract ClimateActionProjects {\n    struct Project {\n        uint256 id;\n        address payable owner;\n        string name;\n        string description;\n        uint256 fundingGoal;\n        string environmentalImpact;\n        bool approved;\n        uint256 currentFunding;\n        uint256 milestoneTarget;\n        bool milestoneReached;\n    }\n    address public admin;\n    Project[] public projects;\n    uint256 public nextProjectId;\n\n    constructor() {\n        admin = msg.sender;\n    }\n\n    modifier onlyAdmin() {\n        require(msg.sender == admin, \"Only admin can perform this action\");\n        _;\n    }\n\n    function submitProject(\n        string memory name,\n        string memory description,\n        uint256 fundingGoal,\n        string memory environmentalImpact,\n        uint256 milestoneTarget\n    ) public {\n        Project memory newProject = Project({\n            id: nextProjectId,\n            owner: payable(msg.sender),\n            name: name,\n            description: description,\n            fundingGoal: fundingGoal,\n            environmentalImpact: environmentalImpact,\n            approved: false,\n            currentFunding: 0,\n            milestoneTarget: milestoneTarget,\n            milestoneReached: false\n        });\n        projects.push(newProject);\n        nextProjectId++;\n    }\n\n    function approveProject(uint256 projectId) public onlyAdmin {\n        Project storage project = projects[projectId];\n        // project.name = \"approved\";\n        project.approved = true;\n    }\n\n    function contributeToFunding(uint256 projectId) public payable {\n        Project storage project = projects[projectId];\n        require(project.approved, \"Project must be approved before funding\");\n        project.currentFunding += msg.value;\n        if (project.currentFunding >= project.milestoneTarget) {\n            project.milestoneReached = true;\n        }\n    }\n\n    function getProjectsCount() public view returns (uint) {\n        return projects.length;\n    }\n\n    // AggregatorV3Interface internal priceFeed;\n\n    // // Chainlink VRF variables\n    // bytes32 internal keyHash;\n    // uint256 internal fee;\n\n    // // Constructor\n    // constructor(\n    //     address _priceFeed,\n    //     address _vrfCoordinator,\n    //     address _link,\n    //     bytes32 _keyHash,\n    //     uint256 _fee\n    // ) VRFConsumerBase(_vrfCoordinator, _link) {\n    //     priceFeed = AggregatorV3Interface(_priceFeed);\n    //     keyHash = _keyHash;\n    //     fee = _fee;\n    // }\n\n    // // Example function to request randomness\n    // function getRandomNumber() public returns (bytes32 requestId) {\n    //     require(LINK.balanceOf(address(this)) >= fee, \"Not enough LINK\");\n    //     return requestRandomness(keyHash, fee);\n    // }\n\n    // // Chainlink VRF callback function\n    // function fulfillRandomness(\n    //     bytes32 requestId,\n    //     uint256 randomness\n    // ) internal override {\n    //     // Use 'randomness' for fair project highlighting\n    // }\n\n    // // Example function to get the latest price from Chainlink Data Feed\n    // function getLatestPrice() public view returns (int) {\n    //     (, int price, , , ) = priceFeed.latestRoundData();\n    //     return price;\n    // }\n}\n",
  "sourcePath": "/home/rahul/Hackathon/fossasia/contracts/ClimateActionProjects.sol",
  "compiler": {
    "name": "solc",
    "version": "0.8.19+commit.7dd6d404.Emscripten.clang"
  },
  "schemaVersion": "3.4.16",
  "updatedAt": "2024-04-06T10:40:16.500Z",
  "networkType": "ethereum",
  "devdoc": {
    "kind": "dev",
    "methods": {},
    "version": 1
  },
  "userdoc": {
    "kind": "user",
    "methods": {},
    "version": 1
  }
}